:020000040800F2
:1000000050390020010100085F110008690D000847
:100010005B110008110A00085119000800000000D7
:100020000000000000000000000000001916000899
:10003000150A0008000000002315000859170008E1
:100040001B0100081B0100081B0100081B01000820
:100050001B0100081B0100081B0100081B01000810
:100060001B0100081B0100081B0100081B01000800
:100070001B0100081B0100081B0100081B010008F0
:100080001B0100081B0100081B0100081B010008E0
:100090001B0100081B0100081B0100081B010008D0
:1000A0001B0100081B0100081B0100081B010008C0
:1000B0001B0100081B0100081B0100081B010008B0
:1000C0001B0100081B0100081B0100081B010008A0
:1000D0001B0100081B0100081B0100081B01000890
:1000E0001B0100081B0100081B010008DFF80CD0F1
:1000F00000F07CFC00480047B92D00085039002072
:100100000648804706480047FEE7FEE7FEE7FEE7B1
:10011000FEE7FEE7FEE7FEE7FEE7FEE75D17000805
:10012000ED000008F0B480EA0102D40F4200B2EB07
:10013000410F02D20246084611464A0042D0C30D82
:10014000DDB2C1F3C752AD1A202D35DAC1F3160165
:1001500041F4000204B15242C5F1200602FA06F150
:100160002A411044B3EBD05F23D0C4B1012DA0EBE2
:10017000C35009DCF0BC4FF0004202EAC352DBB2CC
:1001800000F5000000F05FBB400000F1807000EB64
:10019000C350A0F1807040EAD170490009E04908DD
:1001A00041EAC071A0EBC35000F50000400800EB2D
:1001B000C350F0BC00F03EBB6142012202EB4101A2
:1001C000001BF6E7F0BC704781F00041AAE780F021
:1001D0000040A7E780EA010210B502F000434000AA
:1001E00022D04A001FD0010E01EB1261C0F356006D
:1001F000C2F3560240F4000042F40002A0FB0220C9
:1002000000047F39140400D0401C50EA124001D48D
:100210004000491EC2B20C0604EBD010401C40083E
:10022000802A02D003E0002010BD20F00100002948
:1002300000DA0020184310BD30B480EA010202F059
:10024000004530F0004221F0004013D090B1C30DC2
:10025000D40DC2F31601C0F31600E41A41F40001F4
:1002600040F400027D34914201D3641C00E0490057
:10027000002C02DA30BC002070474FF4000000234D
:10028000914201D3891A034340084FEA4101F7D153
:1002900051B1914202D14FF0004105E002D24FF03E
:1002A000010101E06FF0010103EBC450284430BCB0
:1002B00000F0C0BA2DE9FE4F804681EA0300C00F6E
:1002C0000C46009021F0004123F00045B8EB0200FD
:1002D000A94105D24046214690461C460B4602469F
:1002E00023F00040104347D0270DC7F30A00C3F3A3
:1002F0000A510290401A019040286BDAC3F31300B0
:1003000040F4801B0098924620B10023D2EB030AF0
:1003100063EB0B0B01985946C0F14002504600F0C8
:1003200058FA06460D4650465946019A00F070FAB2
:1003300010EB08006141002487EA115284EAE77358
:100340001A4340D0009A62B3019A012A4FEA075239
:1003500015DC001B61EB02014FF0004202EA07527C
:10036000CDE90042001C41F5801132462B4600F0D9
:10037000D6FA03B0BDE8F08F40462146F9E7001BEE
:1003800061EB0201001C41F5801300185B4120184D
:10039000A2F5001747EB030140EAD570B6196D418D
:1003A00011E06D084FEA360645EAC0754FEA07527C
:1003B000001B61EB0201001C41F5801149084FEA66
:1003C00030000019514132462B4603B0BDE8F04FD2
:1003D00000F096BA0098012240000023D0EB020200
:1003E00063EBE073009821464FEAE074B8EB00003D
:1003F00061EB0401E9E783F000435BE781F0004132
:1004000058E72DE9FE4F81EA030404F0004421F08F
:10041000004100944FF0000B23F0004350EA010428
:100420005ED052EA03045BD0C3F30A54C1F30A5509
:100430002C44A4F2F3340194A0FB0254C1F3130141
:1004400041F48011C3F3130343F4801301FB02440E
:1004500000FB034E840A970A44EA815447EA835713
:10046000A4FB076802958D0A05FB07854FEA932CCC
:1004700004FB0C542705029D4FEA065847EA16373D
:10048000B5EB08056EEB070C870E920E47EA811755
:1004900042EA8312A7FB0201B6EB0B0164EB0004F6
:1004A0002B0D43EA0C335E1844EB1C50DA465146E0
:1004B000E7FB0201C5F313044FEA0B3343EA14537D
:1004C0004FEA0432019C43EA0603A4F10C040294AF
:1004D000009CCDE900B400F022FA03B0BDE8F08F33
:1004E00000200146F9E72DE9F04D81EA030404F00C
:1004F000004B21F0004514464FF0000A23F0004164
:1005000050EA050220D054EA01021DD0C5F30A5773
:100510000246C5F31303C1F31300C1F30A5640F4B6
:10052000801543F48013A7EB0608101BD64608F28B
:10053000FD3873EB050002D308F1010801E09218C1
:100540005B41B8F1000F03DA00200146BDE8F08DF1
:1005500000204FF48011064684460EE0171B73EB13
:10056000050705D3121B63EB050306434CEA010C98
:1005700049084FEA300092185B4150EA0107EDD17B
:1005800052EA030012D082EA040083EA050108431C
:1005900005D0101BAB4106D20122002306E0002249
:1005A0004FF0004302E06FF0010253101AEB060017
:1005B0004CEB085110EB0A0041EB0B01BDE8F04D8C
:1005C00000F09EB9C10F80EAE0700844CA07962384
:1005D000002100F038B996230022114600F033B90B
:1005E0000EB5C10F80EAE0700844CA07002140F24E
:1005F00033438DE80E000A460B4600F090F903B035
:1006000000BD00F0004220F00040C10DC0F3160014
:1006100040F400007F2901DA00207047962903DCAE
:10062000C1F19601C84001E096398840002AF4D013
:100630004042704770B5C1F30A5201F000450024F2
:10064000C1F3130140F2FF3341F480119A4201DA01
:10065000002070BD40F233439A42A2F2334203DCE1
:10066000524200F0C5F800E090402C43F1D04042E7
:1006700070BD00F0004230F000400AD0C10D01F51D
:100680006071C0F3160042EA0151C20840071143ED
:10069000704700200146704730B5041E71F1000418
:1006A00004DB4FF00044404264EB0101141E73F17F
:1006B000000405DB1C464FF00043524263EB040389
:1006C0008B4208BF824230BD30B5041E71F1000478
:1006D00004DB4FF00044404264EB0101141E73F14F
:1006E000000405DB1C464FF00043524263EB040359
:1006F000994208BF904230BD01F0004330B421F070
:10070000004150EA010206D00A0DA2F56072C1F361
:100710001301002A02DC30BC00207047440F44EA79
:10072000C104C100E01830BC00EBC25000F082B838
:10073000002801DBC0F10040002901DBC1F10041CC
:100740008142704730B50B4601460020202201242B
:1007500009E021FA02F59D4205D303FA02F5491B8F
:1007600004FA02F52844151EA2F10102F1DC30BDA5
:100770002DE9F05F0546002092469B4688460646D6
:10078000814640241BE0284641464746224600F069
:100790002FF853465A46C01A914110D311461846B5
:1007A000224600F016F82D1A67EB01084F46224644
:1007B0000120002100F00DF817EB00094E41201E2A
:1007C000A4F10104DFDC484631462A464346BDE831
:1007D000F09F202A04DB203A00FA02F10020704743
:1007E0009140C2F1200320FA03F31943904070476F
:1007F000202A04DB203A21FA02F00021704721FA76
:1008000002F3D040C2F120029140084319467047DC
:10081000202A06DBCB17203A41FA02F043EAE073C4
:1008200006E041FA02F3D040C2F1200291400843B1
:10083000194670470029A8BF7047401C490008BFEF
:1008400020F00100704710B4B0FA80FC00FA0CF000
:1008500050EA010404BF10BC704749B1CCF1200438
:1008600021FA04F411FA0CF118BF012121430843C5
:10087000A3EB0C01CB1D4FEA00614FEA102042BFF1
:10088000002010BC704700EBC35010440029A4BFE7
:1008900010BC7047401C490008BF20F0010010BC8C
:1008A0007047F0B4002802DCF0BC00207047C0F3B1
:1008B000C751C0F3160040F40000CA0701D1400040
:1008C000491E3F2202EB6105002211464FF400064B
:1008D00026FA01F31344D418844201D8001B1A46A7
:1008E0004000491C1729F3DD5100814202D24FF02C
:1008F000FF3100E0002102EBC550F0BCFFF79ABFCA
:1009000010B5141E73F1000408DA401C41F1000117
:1009100092185B411A4301D120F0010010BD2DE96E
:10092000F04D92469B4611B1B1FA81F202E0B0FA65
:1009300080F220329046FFF74CFF04460F4640EA13
:100940000A0041EA0B0153465A46084313D01146A8
:1009500053EA010019D0C8F140025046FFF748FFA2
:1009600005460E46504659464246FFF732FF0843B9
:1009700005D0012004E020463946BDE8F08D002076
:10098000054346EAE0762C4337430A986305E40AB8
:10099000A0EB08000022FD0A44EA47540A3002D5C1
:1009A00000200146E9E7010510196941DDE9084524
:1009B00000196941BDE8F04DA2E7C1F30A52C1F345
:1009C000130140F2FF3341F480119A4202DA002011
:1009D0000146704740F233439A42A2F2334202DCAE
:1009E0005242FFF705BFFFF7F4BE0000064C074D6B
:1009F00006E0E06840F0010394E8070098471034EF
:100A0000AC42F6D3FFF776FB804D0008A04D0008FE
:100A100000BFFEE77047000070B504460F4800684D
:100A20004FF47A71B0FBF1F6304600F06BFE002512
:100A300008E000BF4FF0E020006900F4803000289B
:100A4000F8D06D1CA542F4D34FF0E020006920F0EF
:100A500001004FF0E021086170BD0000000000209F
:100A60000FB47CB504460A990898FFF7B3FB054616
:100A700009990798FFF7AEFB06462946FFF7A4FB46
:100A80000090DDE90801FFF7A5FB05460A990798E4
:100A9000FFF7A0FB06462946FFF744FB0190DDE97E
:100AA0000001C4E900017CBC5DF814FB2DE9F04FA6
:100AB00091B0044600264FF480700E9040F2FF1073
:100AC0000D9000251CE0B5420FDA04EBC60103C906
:100AD000CDE9060104EBC60004EBC50206CA06C058
:100AE00004EBC500DDE9061206C00E9F04E0F61B0C
:100AF000384607EBD0714F10B742F8DD3E446D1C0D
:100B00000D988542DFDB4FF400700F9001200C90B0
:100B100002E00C98401C0C900F9800EBD07149102B
:100B20000F910129F5D188467BE0A8F1010002214F
:100B300001FA00F9484609EBD0714FEA610A4FF01B
:100B40007E500A9000200B905046FFF749FD024668
:100B50000B46CDE9000136483649FFF7C4FCCDE924
:100B6000020100F0F7FECDE90401FFF7C5FD089092
:100B70005046FFF735FD02460B46CDE900012C48F3
:100B80002C49FFF7B0FCCDE9020100F0F7FE81F03F
:100B90000041CDE90401FFF7AFFD099000263AE0DE
:100BA00035462CE005EB0A0B0B9804EBCB0C0090C0
:100BB0000A9B06A8DCE90012FFF752FF54F8350043
:100BC0000699FFF701FB44F83B0004EBC5020799C7
:100BD0005068FFF7F9FA04EBCB01486054F8350090
:100BE0000699FFF79FFA44F8350004EBC502079910
:100BF0005068FFF797FA04EBC50148604D44B5F51E
:100C0000007FCFDB099800900AA8089BDDE90A1253
:100C1000FFF726FF761CAAF10100B042C0DA08F106
:100C200001080C98804580DD11B0BDE8F08F000010
:100C3000182D4454FB2109402DE9F04102460025BE
:100C40000026002000230024002791F803C00CF0A8
:100C50000F0591F803C00CF0100CBCF1000F03D08D
:100C600091F802C04CEA050591F800C0BCF1000FF4
:100C700031D0146800202BE04FF0010C0CFA00F387
:100C8000B1F800C00CEA03069E4220D183004FF069
:100C90000F0C0CFA03F7BC4305FA03FC4CEA0404FE
:100CA00091F803C0BCF1280F06D14FF0010C0CFAEB
:100CB00000FCC2F814C00AE091F803C0BCF1480F70
:100CC00005D14FF0010C0CFA00FCC2F810C0401C1A
:100CD0000828D1D31460B1F800C0BCF1FF0F34DD97
:100CE000546800202EE000F1080C4FF0010808FACB
:100CF0000CF3B1F800C00CEA03069E4221D1830038
:100D00004FF00F0C0CFA03F7BC4305FA03FC4CEA56
:100D1000040491F803C0BCF1280F05D100F1080CC0
:100D200008FA0CF8C2F8148091F803C0BCF1480F1F
:100D300007D100F1080C4FF0010808FA0CF8C2F8CE
:100D40001080401C0828CED35460BDE8F0810246D4
:100D5000002093680B400BB1012000E00020704799
:100D6000416170470161704700BFFEE710B504465E
:100D7000ACB14FF400611748FFF7F4FF00F02CF816
:100D80004FF480611348FFF7EDFF00F025F84FF4B2
:100D900080611048FFF7E4FF00F01EF819E04FF4FF
:100DA00000610C48FFF7DCFF00F016F84FF480619B
:100DB0000848FFF7D7FF00F00FF84FF480610548AF
:100DC000FFF7CEFF00F008F84FF400610148FFF78D
:100DD000C9FF10BD000C0140062000BF0100A0F1BA
:100DE0000102D0B2FAD1704708B50121082000F005
:100DF00099FB14208DF803004FF48060ADF80000DB
:100E000003208DF8020069460548FFF715FF4FF4EF
:100E10000060ADF8000069460148FFF70DFF08BD0E
:100E2000000C01402DE9F0410446884616461F4655
:100E300000F0DEF8E0B200F08BF81A4800780128E4
:100E400002D10020BDE8F08108F0FF0000F080F83A
:100E500014480078012801D10020F3E700F0C8F819
:100E6000611CC8B200F074F80E480078012801D166
:100E70000020E7E700250FE000F046F806F8010B38
:100E8000781EA84203D10120FFF770FF02E0002086
:100E9000FFF76CFF681C85B2BD42EDDB00F0C6F8C1
:100EA0000120CFE72800002070B504460D4600F071
:100EB0009FF8E0B200F04CF812480078012801D108
:100EC000002070BD284600F043F80E480078012845
:100ED00001D10020F5E700F08BF8611CC8B200F0EA
:100EE00037F808480078012801D10020E9E700F030
:100EF0000BF806460120FFF739FF00F097F830465F
:100F0000DFE700002800002070B50024002519E06C
:100F10006006040E4FF480610C48FFF723FFFFF7D3
:100F20005BFF4FF400610948FFF711FF08B1601C37
:100F3000C4B24FF480610548FFF712FFFFF74CFF82
:100F4000681CC5B2082DE3DB204670BD000C0140D3
:100F500070B50446002521E004F0800028B14FF46C
:100F600000612148FFF7FEFE04E04FF400611E48D7
:100F7000FFF7F6FEFFF730FF4FF480611A48FFF7E6
:100F8000F1FEFFF729FF4FF480611748FFF7E8FEF5
:100F9000FFF722FF6006040E681CC5B2082DDBDBDC
:100FA0004FF400611048FFF7DDFEFFF715FF4FF427
:100FB00080610D48FFF7D6FEFFF70EFF4FF400618A
:100FC0000948FFF7C4FE18B101200849087002E083
:100FD0000020064908704FF480610348FFF7C0FE07
:100FE000FFF7FAFE70BD0000000C01402800002051
:100FF00010B54FF480610C48FFF7B4FE4FF4006168
:101000000948FFF7AFFEFFF7E7FE4FF4006106481F
:10101000FFF7A6FEFFF7E0FE4FF480610248FFF7FE
:101020009FFEFFF7D9FE10BD000C014010B54FF434
:1010300000610948FFF794FE4FF480610648FFF70E
:1010400091FEFFF7C9FE4FF400610348FFF78AFEE7
:10105000FFF7C2FE10BD0000000C014070B5044651
:101060000D461646FFF7C4FFE0B2FFF771FF0E48CA
:101070000078012801D1002070BD2846FFF768FFE5
:1010800009480078012801D10020F5E73046FFF734
:101090005FFF05480078012801D10020ECE7FFF749
:1010A000C5FF0120E8E700002800002010B5C0229D
:1010B0000221AE20FFF7D2FF00220321AE20FFF76E
:1010C000CDFF00220421AE20FFF7C8FF002205213A
:1010D000AE20FFF7C3FF00220621AE20FFF7BEFFC0
:1010E0000F220821AE20FFF7B9FF03220921AE200D
:1010F000FFF7B4FF27220A21AE20FFF7AFFF32220D
:101100000C21AE20FFF7AAFF32220D21AE20FFF7FF
:10111000A5FF7F221021AE20FFF7A0FF10BD000029
:1011200008B50121082000F0FDF904208DF8030026
:10113000C001ADF8000069460148FFF77DFD08BD1C
:10114000000C014010B540220921AE20FFF786FFB8
:1011500008B1012010BD0020FCE700BFFEE770478A
:1011600070B500240EE00021204600F0F3F80025C1
:1011700004E0002000F0C5F9681CC5B2802DF8DB42
:10118000601CC4B2082CEEDB70BD0000F0B5144644
:1011900000267F2801DC3F2900DDF0BD0B46CF177C
:1011A00001EB5777FF10C7F10707FAB2CF1701EB32
:1011B0005777FF10A1EBC707FDB2C5F10707012361
:1011C000BB40DEB24CB10A4B03EBC0039B5C334324
:1011D000074F07EBC007BB5408E0054B03EBC00308
:1011E0009B5CB343024F07EBC007BB5400BFD4E77F
:1011F0004C00002010B5AE2200217820FFF72EFF12
:10120000202200217820FFF729FF002211467820B4
:10121000FFF724FFB02200217820FFF71FFFC02234
:1012200000217820FFF71AFF002211467820FFF7EF
:1012300015FF102200217820FFF710FF4022002127
:101240007820FFF70BFF812200217820FFF706FFAF
:10125000DF2200217820FFF701FFA1220021782062
:10126000FFF7FCFEA62200217820FFF7F7FEA82258
:1012700000217820FFF7F2FE3F2200217820FFF7BF
:10128000EDFEA42200217820FFF7E8FED322002102
:101290007820FFF7E3FE002211467820FFF7DEFEFC
:1012A000D52200217820FFF7D9FEF02200217820F6
:1012B000FFF7D4FED92200217820FFF7CFFE2222AB
:1012C00000217820FFF7CAFEDA2200217820FFF7FC
:1012D000C5FE122200217820FFF7C0FEDB2200218C
:1012E0007820FFF7BBFE202200217820FFF7B6FE12
:1012F0008D2200217820FFF7B1FE142200217820F2
:10130000FFF7ACFEAF2200217820FFF7A7FE10BD4B
:1013100070B5002418E004F1B001C8B200F0E1F8A3
:10132000002000F0DEF8102000F0DBF8002507E0D8
:10133000074901EBC501085D00F0E3F8681CC5B280
:10134000802DF5DB601CC4B2082CE4DB70BD00000E
:101350004C00002070B505460C4645F0B00000F08A
:10136000C0F8102141EA141000F0BBF804F00F009F
:1013700000F0B7F870BD00002DE9F84F80460F4629
:1013800016461C46BA462046E31704EB5373DB109F
:1013900021464FEAE47C04EB5C7C4FEAEC0CA4EBC6
:1013A000CC0CBCF1000F02D04FF0010C01E04FF06B
:1013B000000C6344224604EBD27C4FEA6C0C03FB26
:1013C0000CF303F0FF0BA6F12000C6B200254EE09F
:1013D0000C2C07D106EB4600274901EB8000405D4D
:1013E000009013E0102C05D1244800EB0610405D5E
:1013F00000900BE0182C07D106EBC600204901EB4A
:101400008000405D009001E0BDE8F88F4FF00009DA
:1014100027E0009800F0800028B1394640460A9A3B
:10142000FFF7B4FE09E00A9808B9012000E00020A7
:10143000024639464046FFF7A9FE00984006000ED6
:101440000090781CC7B2A7EB0A00A04205D157460E
:1014500008F1010000F0FF0806E009F1010000F0CA
:10146000FF09B9F1080FD4DB00BF681CC5B25D45A8
:10147000AEDB00BFC8E7000020300008943400084D
:10148000843A0008F8B506460F4615461C4621E08A
:1014900004EBD4714910C1F18001B14202DA002697
:1014A0003819C7B2C4F14000B84204DA0020064639
:1014B0000746FFF755FE012000902A78234639465B
:1014C0003046FFF759FF204604EBD07106EB61016F
:1014D000CEB26D1C28787E2802DC28782028D7DA46
:1014E000F8BD10B50446FFF783FD7820FFF730FD07
:1014F0000020FFF72DFD2046FFF72AFDFFF796FDA0
:1015000010BD10B50446FFF773FD7820FFF720FDEE
:101510004020FFF71DFD2046FFF71AFDFFF786FD6F
:1015200010BD704729B1064A92690243044B9A6183
:1015300004E0034A92698243014B9A6170470000BC
:101540000010024030B500210022002400232D4D60
:101550006D6805F00C0121B1042905D0082923D1BB
:1015600005E0294D056022E0274D05601FE0254D6F
:101570006D6805F47012234D6D6805F48034022502
:1015800005EB92421CB9214D554305600BE01D4D02
:101590006D6805F400351DB11C4D5543056002E032
:1015A000194D5543056002E0174D056000BF00BFAF
:1015B000144D6D6805F0F0010909154D6B5C056867
:1015C000DD4045600F4D6D6805F4E061090A104D7E
:1015D0006B5C4568DD4085600A4D6D6805F46051BF
:1015E000C90A0B4D6B5C4568DD40C560054D6D68F3
:1015F00005F44041890B074D6B5CC568B5FBF3F5FD
:10160000056130BD0010024000127A0000093D0063
:101610001400002024000020704710B500F002F8EC
:1016200010BD00000CB50020019000903348006808
:1016300040F480303149086000BF3048006800F451
:10164000003000900198401C0190009818B9019852
:10165000B0F5A06FF1D12948006800F4003010B156
:101660000120009001E0002000900098012843D163
:101670002348006840F010002149086008460068CF
:1016800020F0030008600846006840F0020008608F
:101690001A4840681949486008464068486008464A
:1016A000406840F4806048600846406820F47C1040
:1016B00048600846406840F4E81048600846006802
:1016C00040F08070086000BF0C48006800F00070B7
:1016D0000028F9D00948406820F003000749486015
:1016E0000846406840F00200486000BF0348406878
:1016F00000F00C000828F9D10CBD000000100240D9
:101700000020024030B50146B1F1807F01D30120B5
:1017100030BD21F07F40401E4FF0E0225061501755
:101720000F22002807DA13071D0E094B00F00F04E3
:10173000241F1D5503E013071C0E064B1C5400BF4D
:1017400000204FF0E0229061072010610020DFE7C9
:1017500018ED00E000E400E07047000010B5134809
:10176000006840F0010011490860084640681049CF
:1017700008400E494860084600680E4908400B4979
:1017800008600846006820F4802008600846406829
:1017900020F4FE0048604FF41F008860FFF73DFF13
:1017A0004FF000600449086010BD000000100240C6
:1017B0000000FFF8FFFFF6FE08ED00E000B585B081
:1017C00001210420FFF7AEFE01218803FFF7AAFEE6
:1017D00018208DF813004FF40070ADF810000320AE
:1017E0008DF8120004A91348FFF726FA04208DF89B
:1017F00013000002ADF8100004A90E48FFF71CFA10
:101800004FF4E13000900020ADF80C000C20ADF852
:101810000A000020ADF80800ADF80600ADF804009D
:101820006946054800F024F80121034800F006F855
:1018300005B000BD000801400038014021B1828997
:1018400042F40052828104E082894DF6FF731A400F
:101850008281704702460020B1F5007F00D100BFB1
:1018600013880B400BB1012000E0002070470000FE
:101870002DE9F04786B005460E460024A24600BF7B
:10188000A1460027B08900B100BF2F462C8A4CF634
:10189000FF700440F08804432C82AC894EF6F310AC
:1018A0000440B08831890843718908430443AC81FE
:1018B000AC8A4FF6FF400440B0890443AC8201A8D3
:1018C000FFF740FE1F48874202D1DDF810A001E07B
:1018D000DDF80CA0A88900F4004040B10AEBCA0072
:1018E00000EB0A1031684900B0FBF1F807E00AEBA1
:1018F000CA0000EB0A1031688900B0FBF1F86420DF
:10190000B8FBF0F004012009642101FB1089A889CB
:1019100000F4004040B1322000EBC900B0FBF1F010
:1019200000F00700044308E0322000EB09106421B6
:10193000B0FBF1F000F00F0004432C8106B0BDE8CD
:10194000F087000000380140C1F308028280704730
:1019500000BFFEE72DE9F04104460D46054A064B5F
:1019600020462946FEF7A6FC064600F007F8BDE82B
:10197000F0810000182D4454FB21F93F2DE9F04F70
:1019800093B004460D464FF0000B0022134620464C
:101990002946FEF781FE03D24FF0010B85F000458A
:1019A000704A714B2046294601F0D8FA04460D468C
:1019B0006C4A6E4B20462946FEF786FE0ED2BBF1DE
:1019C000000F01D1012000E000208346654A674BEB
:1019D00020462946FEF70FFD04460D46614A644B3A
:1019E00020462946FEF770FE07D25E4A5F4B20462E
:1019F0002946FEF703FD04460D465E4A5E4B20462F
:101A00002946FEF770FDCDE90E01FEF713FE824672
:101A10005046FEF7E5FD574A574BCDE90C01FEF75E
:101A2000F0FC22462B46CDE90E01FEF7E7FC064608
:101A30000F46504A514B30463946FEF745FE09D213
:101A40000AF1010A4B4A4C4B30463946FEF7D3FCAB
:101A500006460F464A4800EBCA00D0E90089CAF1A1
:101A60006400474901EBC00003C8CDE910013246CC
:101A70003B4630463946FEF7C4FC32463B46CDE98C
:101A80000401FEF7BEFC32463B46CDE90601FEF7F7
:101A9000B8FC42464B46CDE90801FEF7B2FC0022F5
:101AA000384BCDE90A01FEF71EFD32463B46CDE933
:101AB0000E0130463946FEF7A4FC32463B46CDE9DE
:101AC0000201FEF79EFCCDE90401DDE91023FEF7DB
:101AD00098FC00222C4BCDE90601FEF704FD3246AE
:101AE0003B46CDE90A0130463946FEF78AFC4246BC
:101AF0004B46CDE90001FEF784FC00224FF0804305
:101B0000CDE90201FEF7EFFCCDE90601304639468A
:101B1000DDE91023FEF775FC42464B46CDE9020194
:101B2000FEF7C8FBCDE90401DDE90623FEF763FCFF
:101B3000CDE90801DDE90A23FEF75DFCCDE90C01E2
:101B4000DDE90E23FEF7B6FB04460D46BBF1000FA0
:101B500005D0204685F0004113B0BDE8F08F204647
:101B60002946F9E7182D4454FB211940FB2109406F
:101B7000FB21F93F1A271792BF15903FBF15803FF1
:101B8000E047000800003840000018400FB4054B43
:101B900010B503A9044A029800F0E4F810BC5DF8FF
:101BA00014FB0000952D0008440000200FB4084BE2
:101BB00010B504A902AA039800F0D4F8044602A9BB
:101BC000002000F066FC204610BC5DF814FB00000D
:101BD0009324000802E008C8121F08C1002AFAD1A5
:101BE00070477047002001E001C1121F002AFBD19D
:101BF000704700000149086070470000480000205D
:101C00002DE9FF5FDDE90220010DDDF838B0024368
:101C100018D044F61050A1F2FF3141430D140F9833
:101C2000012820D0A5EB0B00401C5FEA000A4FF012
:101C30000004474EDFF81C91A046504616D5CAF165
:101C4000000728E00F98012443A2012808D00021B2
:101C500000980F9BC0E90021C0E90243BDE8FF9F47
:101C60006FEA0B01F4E7CBF10000DEE7074612E074
:101C7000F80707D02246334640464946FEF7C1FBE7
:101C8000804689462246334610461946FEF7B9FB80
:101C900004460E467F10002FEAD1DDE90201BAF1B9
:101CA000000F42464B4602DAFEF7ABFB01E0FEF7BF
:101CB0001AFC04460E460022284BFEF705FD03D809
:101CC0004FF0FF30014607E00022254B2046314609
:101CD000FEF7F0FAFEF771FE102409E0002C0ADB93
:101CE0000A220023FEF744FD019B30321A55641E80
:101CF00050EA0102F2D1641C019AC4F111031444A8
:101D00000F9A012A03D0012208430DD10AE00843AB
:101D100004D000204FF0110B0F9080E7A3EB0B05D0
:101D20006D1E0DE05B4504DD4FF0000205F101057D
:101D300004E003DA4FF00002A5F10105002AECD01F
:101D400000980F99C0E90231C0E9004586E700001C
:101D5000000024400000F03F300000000000F0438D
:101D60000000E03F2DE9FF4F95B09B4689460646AF
:101D700000250FE2252877D100242746F84A0121C3
:101D8000059400E0044316F8013F203B01FA03F0FC
:101D90001042F7D130782A2811D06FF02F03307815
:101DA000A0F13002092A16D8059A44F0020402EB89
:101DB000820203EB42021044761C0590EFE759F8CB
:101DC000042B0592002A03DA504244F40054059093
:101DD00044F00204761C30782E2816D116F8010F34
:101DE00044F004042A280DD06FF02F023078A0F1BF
:101DF0003003092B09D807EB870302EB4303C7180D
:101E0000761CF3E759F8047B761C30786C280FD0E9
:101E100006DC4C2817D068280DD06A2814D104E0BD
:101E2000742810D07A280FD10DE044F400140AE091
:101E300044F4801401E044F440147278824202D1E8
:101E400004F58014761C761C307866280BD013DCE1
:101E5000582877D009DC002875D04528F6D04628C8
:101E6000F4D047281AD19DE118E0632835D06428C2
:101E700079D0652812D195E1702873D008DC6728E5
:101E8000F1D069286FD06E280DD06F2806D1B5E04B
:101E900073282CD0752875D0782874D05A46179995
:101EA00090476D1C75E1C4F30250022809D0032845
:101EB0000DD0D9F8001004280DD00D6009F10409E7
:101EC00067E1D9F80010EA17C1E90052F6E7D9F83E
:101ED00000100D80F2E70D70F0E719F8041B8DF883
:101EE000001000208DF80100EA46012003E059F8B7
:101EF00004AB4FF0FF3061074FF0000102D40DE05A
:101F000008F101018846B9420FDA8045F8DB1AF87A
:101F100008100029F4D108E008F101018846814247
:101F2000FADB1AF808100029F6D105985B46A0EBF9
:101F3000080721463846179A00F094FA284400EB27
:101F4000080507E04DE029E10DE01AF8010B5A46BB
:101F500017999047B8F10108F7D25B4621463846F9
:101F6000179A13E142E00A220092C4F302524FF0A2
:101F7000000A022A08D059F804CB032A4FEAEC7170
:101F80000AD00DE029E02AE009F1070121F007025B
:101F9000F2E802C1914609E00FFA8CFC4FEAEC71BD
:101FA000042A03D14FFA8CFC4FEAEC71002907DABE
:101FB0000A460021DCF1000C61EB02012D2202E057
:101FC000220504D52B228DF80420012203E0E2072C
:101FD00001D02022F7E7904659E00A2102E01022C2
:101FE0000DE010214FF0000A00910BE010224FF09D
:101FF000000A44F004040827009203E008224FF08E
:10200000000A0092C4F30252022A05D059F804CB08
:102010000021032A08D009E009F1070121F0070295
:10202000F2E802C1914605E01FFA8CFC042A01D1B6
:102030000CF0FF0C4FF00008220728D5702806D0BE
:10204000009B83F0100353EA0A0305D00EE0402200
:102050008DF80420012208E05CEA010206D030225B
:102060008DF804208DF8050002229046009B83F035
:10207000080353EA0A030AD15CEA010201D16207AC
:1020800005D530228DF804204FF001087F1E582816
:1020900004D034A003900EA802900DE036A0F9E71A
:1020A00053466046009AFEF763FB84460398825CC1
:1020B0000298401E029002705CEA0100F0D1029882
:1020C00006A9081A00F1200A600702D524F480341A
:1020D00000E00127574502DDA7EB0A0000E00020E1
:1020E00000EB0A01009005984144401A0590E00376
:1020F00006D45B462146179A059800F0B3F90544CB
:10210000002706E001A85A46C05D179990476D1C4C
:102110007F1C4745F6DBE0030CD55B462146179A4A
:10212000059800F09FF9054404E030205A461799BD
:1021300090476D1C0099481E00900029F5DC08E0CE
:10214000029802995A460078491C029117999047C3
:102150006D1CBAF10001AAF1010AF1DC65E1000091
:10216000092801003031323334353637383961626D
:102170006364656600000000303132333435363731
:1021800038394142434445460000000000F058F908
:102190000544761C307800287FF4ECAD19B0284651
:1021A000BDE8F08F620700D4062709F1070222F08C
:1021B000070CFCE80223E14603F000485FEA080C44
:1021C00002D00FF2702C0DE05FEA045C02D50FF232
:1021D000682C07E05FEAC47C02D00FF2602C01E0BB
:1021E000AFF2700C4FF0FF3823F00043CDF850C031
:1021F00065280CD006DC452809D046281DD0472884
:102200003DD13DE0662818D067287ED138E0002116
:10221000112F01DB112000E0781CCDE9000106A997
:102220000EA8FFF7EDFCDDE90F010E9A03910021E6
:10223000009207F1010A04914DE04FF00040009731
:10224000CDE9011006A90EA8FFF7DAFCDDE90F02BF
:1022500003920E9B11990022DDF80CA000930492CA
:1022600011B9791C00EB010AB7EB0A0004D4C0F1E4
:10227000FF3007F1010A0490AAEB0700019044E047
:10228000012F00DA01270021112F01DD112000E0CC
:102290003846CDE9000106A90EA8FFF7B1FCDDE93B
:1022A0000F010E9A0391002104910092BA46210772
:1022B0000CD40399514500DA8A46BAF1010F05DDC5
:1022C000009AAAF10101515C302908D0B84202DA23
:1022D00010F1040F06DA0121CDE9011015E0AAF191
:1022E0000101E9E7002805DC049901440491AAEB07
:1022F000000102E0411C514500DD8A460499401A64
:10230000401C01904FF000400290200704D4019837
:10231000504501DBCDF8048000208DF84F00029875
:102320000DF14F07B0F1004F25D02B200E900298F1
:102330004FF0020800280CDA404202902D200E9047
:1023400007E00A210298FEF7FDF93031029007F804
:10235000011DB8F10001A8F10108F2DC0298002883
:10236000EFD1791E0E980870307800F0200040F010
:10237000450007F8020D12A8C01B00F107081498C9
:10238000007800B1012000EB0A01019801EBE07137
:1023900005984144401A401E0590E00306D45B4670
:1023A0002146179A059800F05DF8054414980078C6
:1023B00018B15A46179990476D1CE00324D55B4627
:1023C0002146179A059800F04DF805441CE0049842
:1023D000002807DBDDE90301884203DD0098405C4B
:1023E000179901E0179930205A469047049805F153
:1023F0000105401C04900198401E019004D12E203C
:102400005A46179990476D1CBAF10001AAF1010ACA
:10241000DDDC05E017F8010B5A46179990476D1C53
:10242000B8F10001A8F10108F4DC5B462146179AD7
:102430000598ABE62D0000002B00000020000000F6
:102440002DE9F041044600251E461746880404D4B1
:1024500005E039462020B0476D1C641EF9D528469A
:10246000BDE8F0812DE9F041044600251E46904666
:10247000C80301D5302700E02027880404D505E0F3
:1024800041463846B0476D1C641EF9D52846BDE864
:10249000F0810A68531C0B6010707047F0B59BB058
:1024A00000F016FB00F098F8002000F02DFC3349F6
:1024B0004868FEF7DEF80646314A324BFEF704F96B
:1024C00002D22F482F4903E02C494868FEF7D1F883
:1024D0000446FEF711F9294948600846006848B9E2
:1024E00048680021FEF724F904D127A102A8FFF7CC
:1024F0005DFB0BE021494868FEF7BBF8CDE9000120
:102500001E4826A1026802A8FFF750FB0C2302AA6E
:1025100000210846FEF7B6FFFEF7FAFEC82010E0DD
:10252000244951F82020A0F1C801224B43F8212072
:10253000214951F82020A0F1C8011F4B43F8212068
:10254000401CB0F5FA7FEBDB00231B4A142119482D
:1025500000F020FB0948016818A0FFF717FB0A20CC
:10256000FEF75AFA05494868FEF783F80446224602
:102570000B4615A0FFF70AFB1BB0F0BD3C00002086
:102580008FC2F5285CFF584048523A2D2D2D20531C
:10259000704F323A2D2D2D200000000048523A2570
:1025A00033642053704F323A25322E316625252070
:1025B000000000004C2500204C2D0020D6B8C1EEB4
:1025C000D0C4C2CA25336400D6B8C1EED1AAD1F5B1
:1025D00025302E32660000002DE9F04F91B0002624
:1025E000B14600200F900E9000240EE0FE4850F8F7
:1025F00034103046FDF796FD0646FC4850F834107E
:102600004846FDF78FFD8146641CB4F5007FEDD38D
:102610004FF088413046FDF70FFE06464FF08841E7
:102620004846FDF709FE8146002412E0EE4951F8C4
:1026300034003146FDF7C8FDEB4941F83400EB4961
:1026400051F834004946FDF7BFFDE84941F8340030
:10265000641CB4F5007FE9D3E548FFF797FA01243D
:102660004EE0E14850F834104FF08040FDF7B2FDE5
:102670008046601EDC4A52F830104046FDF752FD9D
:102680000746D94A601C52F830103846FDF74AFD1B
:1026900010901098FDF7EDFF0022D64BCDE90A010E
:1026A000FDF721FF0746FEF727F8CF4941F8340030
:1026B000CE4850F834104FF08040FDF78BFD804637
:1026C000601ECA4A52F830104046FDF72BFD0746FF
:1026D000C64A601C52F830103846FDF723FD1090B2
:1026E0001098FDF7C6FF0022C24BCDE90A01FDF7A5
:1026F000FAFE0746FEF700F8BC4941F83400641CB6
:10270000B4F5FF7FADD900249DE0B74B621C53F8B0
:1027100032101A4652F83400FDF704FDB24A089010
:10272000A01C52F830100898FDF7FCFCAE4A099046
:10273000E01C52F830100998FDF7F4FCAA4A0A9000
:10274000201D52F830100A98FDF7ECFCA64A0B90B9
:10275000601D52F830100B98FDF7E4FC8046A24A49
:10276000A01D52F830104046FDF7DCFC07469E4A9B
:10277000E01D52F830103846FDF7D4FC1090109848
:10278000FDF777FF00229C4BCDE90A01FDF7ABFE78
:102790000746FDF7B1FF944941F83400934B621CA2
:1027A00053F832101A4652F83400FDF7BBFC8F4A3A
:1027B0000890A01C52F830100898FDF7B3FC804632
:1027C0008A4AE01C52F830104046FDF7ABFC874ABD
:1027D0000990201D52F830100998FDF7A3FC834A98
:1027E0000A90601D52F830100A98FDF79BFC0746CE
:1027F0007E4AA01D52F830103846FDF793FC7B4A04
:102800000B90E01D52F830100B98FDF78BFC1090E8
:102810001098FDF72EFF0022774BCDE90A01FDF756
:1028200062FE0746FDF768FF704941F834006E49C3
:1028300051F83400FDF71DFF07463A460B466FA0DE
:10284000FFF7A4F9641CB4F5FC7FFFF45EAF6D489C
:10285000FFF79CF900240BE0644951F83400FDF7C0
:1028600008FF07463A460B4664A0FFF78FF9641C41
:10287000B4F5007FF0D36448FFF788F9002063497E
:1028800008605948FEF712F95848FEF70FF96048FA
:10289000FFF77CF9002438E0534A02EBC402516888
:1028A000514A02EBC4025068FDF794FC80464E4A40
:1028B00052F8341052F83400FDF78CFC41460B906E
:1028C000FDF730FC074600F095FB474941F834001E
:1028D000464A02EBC4025168444A02EBC402506803
:1028E000FDF778FC8046414A52F8341052F8340023
:1028F000FDF770FC41460B90FDF714FC074600F015
:1029000079FB394941F83400641CB4F5007FC3D326
:1029100001240EE0344850F834100F98FDF702FC03
:102920000F90324850F834100E98FDF7FBFB0E90D4
:10293000641CB4F5007FEDD300240BE02A4951F864
:102940003400FDF796FE07463A460B462BA0FFF7EC
:102950001DF9641CFF2CF1D92E48FFF717F900244C
:102960000BE0224951F83400FDF783FE07463A4652
:102970000B4622A0FFF70AF9641CFF2CF1D9264868
:10298000FFF704F91E21184800F0EAF90D901E2106
:10299000164800F0E5F90C9020A00D99FFF7F6F825
:1029A0001EA00C99FFF7F2F80D98FDF719FE0746E7
:1029B00000221C4BFDF725FD00224FF08143CDE99D
:1029C0000601FDF790FD0022174BCDE90801FDF748
:1029D00018FDCDE90A01FDF78FFE82465046FDF74E
:1029E00010FE1249086023E04C040020CC140020A3
:1029F000244D0008000010400000204025660D0A0C
:102A000000000000C04C0008FC4B00083000002013
:102A1000884B0008644C0008084B000825640D0A28
:102A2000000000000000594000004E403C00002023
:102A300049460F98FDF7CEFB074631460E98FDF745
:102A4000C9FB80463946FDF7F7FB83465846FDF73C
:102A500010FE0746174A184BFDF7D3FCCDE90601D7
:102A60005846FDF706FECDE902015846FDF701FE86
:102A7000124A134BCDE90001FDF7C3FC0746DDE91F
:102A80000223FDF7BEFCCDE90401DDE90623FDF7D5
:102A900011FC0C4A0C4BCDE90801FDF70BFCCDE90C
:102AA0000A01FDF729FE054608494D6011B0BDE851
:102AB000F08F0000B4C876BE9F5A3E4048E17A14B9
:102AC000AE8746C0AE47E17A14B657403C000020BE
:102AD00010B500202649086026490860486040E09B
:102AE00038E000F0AFF922480068B0F5007F31D23D
:102AF00021480088FDF76FFD20491D4A126841F802
:102B0000320000201A4A126801EBC20148601C48DA
:102B10000088FDF760FD1B49154A126841F8320034
:102B200000211848124A126800EBC20041601048A8
:102B30000068401C0E4908600F48018812480C4A82
:102B4000126840F822100E4801881048084A12689E
:102B500040F822104FF400710D48FEF7F8F80028F5
:102B6000BFD003480068B0F5007FB9D310BD0000A6
:102B7000300000203C0000202A0000204C040020EF
:102B80002C000020CC1400204C2500204C2D0020CF
:102B9000000C01402DE9FF4F85B005468B461646D7
:102BA0000020049003904FF48029CA4600240FE0CF
:102BB00055F824100498814202D955F82400049055
:102BC00055F82400484501D255F82490601C84B281
:102BD000FF2CEDDD00240FE056F82410039881420D
:102BE00002D956F82400039056F82400504501D22B
:102BF00056F824A0601C84B2FF2CEDDD0498A0EBF5
:102C000009001421B0FBF1F002900398A0EB0A0038
:102C1000B0FBF1F00190002444E0600055F8200082
:102C2000012101EB440155F821104718600056F8C6
:102C30002000012101EB440156F8211000EB0108AE
:102C40007F084FEA5808A7EB0907A8EB0A08029883
:102C5000B7FBF0F70198B8FBF0F8142F00D9142750
:102C6000B8F1140F01D94FF01408CBF13F02D21B79
:102C7000D1B2E0B20122FEF789FA089AC2F13F020E
:102C8000A2EB0802D1B2E0B20122FEF77FFAE1170F
:102C900004EB5171C910A4EBC10109B9FEF738FB6F
:102CA000601C84B2802CB8DB09B0BDE8F08F000056
:102CB00070B50646002422E004F1B000C2B2002143
:102CC0007820FEF7CBF9002211467820FEF7C6F9EE
:102CD000102200217820FEF7C1F900250BE03246D2
:102CE00040217820FEF7BAF90020064901EBC50122
:102CF0000855681CC5B2802DF1DB601CC4B2082CDD
:102D0000DADB70BD4C00002070B50646002422E0DE
:102D100004F1B000C2B200217820FEF79FF9002232
:102D200011467820FEF79AF9102200217820FEF74C
:102D300095F900250BE0324640217820FEF78EF908
:102D40000020064901EBC5010855681CC5B2802D5D
:102D5000F1DB601CC4B2062CDADB70BD4C00002035
:102D60002DE9F04105460E460424274655F83480E7
:102D700000BF09E055F834104046FDF7D9FC02D2F7
:102D800055F834802746641CB442F3DB3846BDE86E
:102D9000F081000070B504460D46E1B20548FEF72B
:102DA000D3FD00BF80210348FEF754FD0028F9D071
:102DB000204670BD003801400024FEF7FFFC19A03A
:102DC000FEF7E4FEFEF710F8FEF714FA0020FFF716
:102DD0006FFF102318A240210020FEF753FBFEF7DF
:102DE00097FAFEF79DF9FEF7ADF9FEF75FF94FF49C
:102DF0007A70FDF711FE00BF0AE001E000F022F852
:102E00004FF400710E48FDF7A2FF0028F6D0641CB5
:102E1000802CF2DB0020FFF74BFF01E0FFF73EFBC9
:102E2000FCE70000D5E2CAC7B4AEBFDAB5F7CAD432
:102E3000D6FACAD60D0A0000676F6F640000000062
:102E4000000C01401CB500202F4908802F49088044
:102E50000021AE20FEF728F80121AE20FEF724F86D
:102E600007208DF8000006236A460721AE20FDF7F3
:102E7000D9FF9DF800404FF6FF7000EA84342248E5
:102E800000882044204908809DF801404FF6FF70DB
:102E900000EA841408460088204408809DF8024017
:102EA000A41008460088204408809DF803404FF68F
:102EB000FF7000EA843415480088204413490880D4
:102EC0009DF804404FF6FF7000EA8414084600881D
:102ED000204408809DF80540A4100846008820443E
:102EE00008800846008842F21071884202DC002007
:102EF000064908800448008842F21071884202DCCA
:102F00000020014908801CBD2A0000202C00002060
:102F10002DE9FC4104460D46CDE90045019800F03D
:102F2000004080B120462946FDF784FB8046FDF72E
:102F300049FB07464FF07E51FDF746F90646FDF77F
:102F400098FBBDE8FC8120462946FDF773FB074648
:102F5000FDF738FB0646FDF78CFBF2E72DE9FC5F39
:102F600006460F4614461D460022134620462946B3
:102F7000FDF792FB03D100200146BDE8FC9F2246ED
:102F80002B4630463946FDF7AEFA8246FFF7C0FFC2
:102F9000CDE9000122462B46DDE90001FDF731FABB
:102FA000824632463B46FDF729FA80468946002292
:102FB000134630463946FDF76FFB02D24FF0010A47
:102FC00001E04FF0000A0022134620462946FDF793
:102FD00063FB01D2012000E00020824507D0224699
:102FE0002B4640464946FDF706FA8046894640464C
:102FF0004946C2E770B50546FDF753FC044620F08C
:103000000040C0F1FF40C00F08D025F00040C0F1E3
:10301000FF40C00F04BF0120FEF7ECFD204670BD4D
:1030200000000000000000000000000000000000A0
:103030003F40000000000000000030004000300071
:103040004000000009000BC03D000BC03D0009001E
:1030500018C024407FE0224031800000180024C0C6
:103060001B000D803240018003801C4027401C80E3
:103070000740004010006000000000000000000059
:103080000000000000001F80204040200000402081
:1030900020401F8000000000090006001F8006007D
:1030A00009000000040004003F8004000400000048
:1030B0000010006000000000000000000400040098
:1030C00004000400040000000000004000000000B4
:1030D00000000000002001C0060038004000000091
:1030E0001F802040204020401F8000000000104032
:1030F0003FC000400000000018C021402240244092
:103100001840000010802040244024401B80000014
:1031100002000D0011003FC0014000003C8024402F
:1031200024402440238000001F8024402440344059
:10313000038000003000200027C03800200000007D
:103140001B802440244024401B8000001C0022C01F
:10315000224022401F8000000000000008400000C4
:1031600000000000000000000460000000000000FB
:10317000000004000A0011002080404009000900FE
:1031800009000900090000000000404020801100F3
:103190000A0004001800200023402400180000004A
:1031A0001F802040274029401F400000004007C0EA
:1031B00039000F0001C0004020403FC0244024409F
:1031C0001B8000001F8020402040204030800000F5
:1031D00020403FC0204020401F80000020403FC0D2
:1031E00024402E4030C0000020403FC024402E002C
:1031F000300000000F001080204022403380020089
:1032000020403FC0040004003FC020402040204038
:103210003FC02040204000000060202020203FC010
:103220002000200020403FC024400B0030C0204040
:1032300020403FC020400040004000C03FC03C0054
:1032400003C03C003FC0000020403FC00C402300B2
:103250003FC020001F802040204020401F800000F1
:1032600020403FC024402400180000001F8021405F
:10327000214020E01FA0000020403FC02440260045
:1032800019C0004018C02440244022403180000072
:10329000300020403FC020403000000020003F8030
:1032A000004000403F80200020003E0001C0070099
:1032B00038002000380007C03C0007C0380000007C
:1032C000204039C0060039C02040000020003840AE
:1032D00007C0384020000000304021C02640384060
:1032E00020C00000000000007FE0402040200000DF
:1032F000000070000C00038000400000000040202F
:1033000040207FE00000000000002000400020007E
:10331000000000000010001000100010001000104D
:1033200000000000400000000000000000000280DB
:103330000540054003C0004020003FC00440044059
:1033400003800000000003800440044006400000A9
:1033500000000380044024403FC000400000038080
:103360000540054003400000000004401FC0244009
:1033700024402000000002E00550055006500420C3
:1033800020403FC00440040003C00040000004404F
:1033900027C000400000000000100010041027E0CB
:1033A0000000000020403FC00140070004C004406E
:1033B000204020403FC000400040000007C0040003
:1033C00007C0040003C00000044007C0044004001C
:1033D00003C000400000038004400440038000005C
:1033E000041007F004500440038000000000038034
:1033F0000440045007F00010044007C002400400DD
:1034000004000000000006400540054004C0000024
:10341000000004001F8004400040000004000780FA
:103420000040044007C000400400070004C00180C1
:1034300006000400060001C0070001C006000000ED
:10344000044006C0010006C004400000041007103C
:1034500004E00180060004000000044005C00640AE
:10346000044000000000000004007BE04020000059
:10347000000000000000FFF00000000000004020FD
:103480007BE00400000000004000800040002000BD
:1034900020004000000000000000000000000000CC
:1034A000000000000000000000001FCC000C000025
:1034B000000000000000080030006000080030003C
:1034C00060000000022003FC1E20022003FC1E20DE
:1034D0000220000000000E1811043FFF10840C7839
:1034E000000000000F0010840F3800C00778188417
:1034F0000078000000780F8410C411240E9800E4B6
:10350000008400080800680070000000000000004F
:103510000000000000000000000007E01818200470
:1035200040020000000040022004181807E00000DC
:10353000000000000240024001800FF001800240C4
:10354000024000000080008000800FF800800080B2
:10355000008000000001000D000E000000000000CF
:1035600000000000000000800080008000800080DB
:10357000008000800000000C000C00000000000033
:103580000000000000000006001800600180060036
:1035900018002000000007F00808100410040808B4
:1035A00007F000000000080408041FFC00040004E9
:1035B0000000000000000E0C1014102410441184B0
:1035C0000E0C000000000C181004110411041288E5
:1035D0000C700000000000E00320042408241FFCFD
:1035E0000024000000001F981084110411041088AA
:1035F00010700000000007F00888110411041888FA
:103600000070000000001C00100010FC13001C00E3
:103610001000000000000E38114410841084114482
:103620000E38000000000700088C10441044088881
:1036300007F00000000000000000030C030C000075
:103640000000000000000000000101060000000072
:103650000000000000000080014002200410080863
:10366000100400000220022002200220022002207A
:10367000022000000000100408080410022001408D
:103680000080000000000E001200100C106C108072
:103690000F00000003E00C1813E4142417C40828DA
:1036A00007D000000004003C03C41C40074000E4B5
:1036B000001C000410041FFC1104110411040E88E6
:1036C0000070000003E00C1810041004100410082F
:1036D0001C10000010041FFC100410041004080843
:1036E00007F0000010041FFC1104110417C410049B
:1036F0000818000010041FFC1104110017C010006E
:103700000800000003E00C181004100410441C789A
:103710000040000010041FFC108400800080108412
:103720001FFC10040000100410041FFC10041004FF
:103730000000000000030001100110011FFE100036
:103740001000000010041FFC110403801464181CF6
:103750001004000010041FFC100400040004000406
:10376000000C000010041FFC1F0000FC1F001FFCC9
:103770001004000010041FFC0C04030000E01018EB
:103780001FFC100007F008081004100410040808BB
:1037900007F0000010041FFC1084108010801080BF
:1037A0000F00000007F0081810241024101C080A4D
:1037B00007F2000010041FFC1104110011C01130A9
:1037C0000E0C000400000E1C110410841084104420
:1037D0001C3800001800100010041FFC100410001A
:1037E0001800000010001FF810040004000410046A
:1037F0001FF8100010001E0011E0001C0070138064
:103800001C0010001FC0103C00E01F0000E0103C36
:103810001FC000001004180C163401C001C016347B
:10382000180C100410001C00130400FC13041C00EE
:10383000100000000804101C1064108413041C0401
:10384000101800000000000000007FFE400240024F
:1038500040020000000030000C0003800060001CEB
:103860000003000000004002400240027FFE000012
:103870000000000000000000200040004000400068
:103880002000000000010001000100010001000112
:103890000001000100004000400020000000000086
:1038A000000000000000009801240144014401448C
:1038B00000FC000410001FFC0088010401040088C3
:1038C0000070000000000070008801040104010481
:1038D0000088000000000070008801040104110845
:1038E0001FFC0004000000F80144014401440144AD
:1038F00000C800000000010401040FFC11041104C1
:1039000011001800000000D601290129012901C970
:103910000106000010041FFC0084010001000104E6
:1039200000FC000400000104190419FC0004000458
:10393000000000000000000300010101190119FE50
:103940000000000010041FFC0024004001B4010C22
:10395000010400000000100410041FFC0004000417
:1039600000000000010401FC0104010001FC01044D
:10397000010000FC010401FC0084010001000104BD
:1039800000FC0004000000F801040104010401042B
:1039900000F80000010101FF008501040104008816
:1039A000007000000000007000880104010401059F
:1039B00001FF00010104010401FC00840104010075
:1039C00001800000000000CC012401240124012416
:1039D0000198000000000100010007F80104010443
:1039E00000000000010001F80004000400040108C8
:1039F00001FC0004010001800170000C0010016056
:103A00000180010001F0010C003001C00030010C08
:103A100001F0010000000104018C00740170018CB0
:103A200001040000010101810171000E0018016014
:103A30000180010000000184010C01340144018473
:103A4000010C0000000000000000000001003EFC2E
:103A5000400240020000000000000000FFFF0000E4
:103A6000000000000000400240023EFC0100000097
:103A70000000000000006000800080004000400066
:103A800020002000000000000000000000000000F6
:103A90000000000000000000000000000000000026
:103AA0000000000000000000000000000000000016
:103AB000000000000000000F80380FFE380F803833
:103AC00000000000000000000000000000000000F6
:103AD00000000100000600000C000038000031006A
:103AE000000600000C00003800003000000000005C
:103AF0000000000061800067F807F9800061800025
:103B000061800061800061800067F807F9800061D2
:103B10008000000000000000000001C0E003E0F0B1
:103B20000630080418081FFFFE040E080787F0037C
:103B300081E000000000000001F000060C00040419
:103B400008060C7001F9C0000E00003BE000EC1804
:103B5000070808040C180003E00000000001E00062
:103B600007F003F818041C0804170807E1D003C085
:103B7000E00023B0003C0800200800001000000016
:103B80000000000100003100003200001C000000B5
:103B90000000000000000000000000000000000025
:103BA0000000000000000000000000000000000015
:103BB000000000007F0001FFC00780F00C0018101B
:103BC000000420000200000000000020000210009D
:103BD000040C00180780F001FFC0007F0000000007
:103BE00000000000000000000000000000000000D5
:103BF0004200006600006600003C0000180003FF61
:103C0000C0001800003C0000660000660000420092
:103C10000000000008000008000008000008000084
:103C2000080001FFC00008000008000008000008AC
:103C30000000080000000000000100003100003218
:103C400000001C0000000000000000000000000058
:103C50000000000000000000000000000800000854
:103C6000000008000008000008000008000008002C
:103C7000000800000800000800000000000000002C
:103C8000000000003800003800003800000000008C
:103C90000000000000000000000000000000000024
:103CA00000000000000600001C0000700001800001
:103CB0000E0000380000C0000700001C00003000AB
:103CC00000000000000000007F8001FFE003807022
:103CD000060018040008040008060018038070019C
:103CE000FFE0007F800000000000000000000100F5
:103CF0000801000801000803FFF807FFF8000008AA
:103D000000000800000800000000000000000001A2
:103D1000C03802C0580400980401180402180404B2
:103D200018061C1803F81801E0F800000000000055
:103D300000000001C0E003C0F0040008040808040B
:103D4000080806180803F41801E7F00001E0000075
:103D500000000000000000000300000D0000110042
:103D600000610000810803010807FFF80FFFF80059
:103D700001080001080000000000000000E007FC4E
:103D8000D00608080610080610080610080618389D
:103D9000060FF00607C00000000000000000000051
:103DA0003F8001FFE003843002081804100804106B
:103DB00008041008071810030FF00007C0000000E7
:103DC00000000000000003C000070000060000061D
:103DD00000F80607F806180006E0000700000600D5
:103DE0000000000000000001E1E003F7F0063410DD
:103DF000041808041808040C08040C080616180314
:103E0000F3F001C1E000000000000000F80003FC36
:103E100030030638040208040208040208040410EF
:103E20000308F001FFC0007F000000000000000058
:103E3000000000000000000000000000703800706A
:103E40003800703800000000000000000000000092
:103E50000000000000000000000000000000000062
:103E6000301A00301C0000000000000000000000BC
:103E70000000000000000000000000080000140026
:103E80000022000041000080800100400200200468
:103E900000100800080000000000000021000021C0
:103EA000000021000021000021000021000021006D
:103EB000002100002100002100000000000000009F
:103EC00000000800080400100200200100400080EB
:103ED00080004100002200001400000800000000E3
:103EE00000000003C00004C00004000008003808FF
:103EF0000F380808380810000C300007E00003C035
:103F000000000000000000003F8000FFE003807020
:103F1000020F1006708804C088048308047F88029A
:103F2000C09003012000FE400000080000180001BE
:103F3000F8003E0801C20007020007E20000FE0090
:103F4000001FC80001F8000038000008040008073E
:103F5000FFF807FFF8040808040808040808040824
:103F60000806180803F41801E7F00001E00000005B
:103F7000000000003F8001FFE00380700200180491
:103F80000008040008040008040010060020078050
:103F9000C000000004000807FFF807FFF80400084D
:103FA00004000804000804001802001003807001D7
:103FB000FFE0007F8000000004000807FFF807FF13
:103FC000F8040808040808040808040808043E085F
:103FD0000400080600180100600000000400080743
:103FE000FFF807FFF80408080408000408000408A4
:103FF00000043E00060000060000018000000000F2
:10400000000000003F8001FFE003807006001804FC
:1040100000080402080402080203F00783F000020B
:104020000000020004000807FFF807FFF804080872
:104030000008000008000008000008000408080745
:10404000FFF807FFF804000800000000000004006B
:104050000804000804000807FFF807FFF804000838
:104060000400080400080000000000000000000038
:104070000006000007000001040001040001040024
:104080000307FFFE07FFFC0400000400000400001B
:1040900004000807FFF807FFF8040C0800180000E8
:1040A0003E0004C7800503C80600F8040038040079
:1040B0001800000804000807FFF807FFF8040008CC
:1040C00000000800000800000800000800000800C8
:1040D000001800006000000004000807FFF80780D7
:1040E0000807FC00007FC00003F80007C00078004C
:1040F00007800807FFF807FFF80400080400080716
:10410000FFF807000803C00000E000003800001EB0
:10411000000007000001C00400F007FFF8040000E1
:10412000000000007F8001FFE0038070060018049B
:10413000000804000806001803003001FFE0007FBB
:104140008000000004000807FFF807FFF8040408D7
:10415000040400040400040400040400060C00032A
:10416000F80001F000000000000000007F8001FF67
:10417000E00380700600880400880400C806003C44
:1041800003003E01FFE6007F8400000004000807F2
:10419000FFF807FFF8040808040800040C00040FE7
:1041A00000040BC00610F003F03801E0080000081E
:1041B00000000001E0F803F0300630100418080495
:1041C0001808040C08040C080206180207F00781FE
:1041D000E000000001800006000004000004000070
:1041E00004000807FFF807FFF804000804000004B3
:1041F000000006000001800004000007FFE007FF48
:10420000F004001800000800000800000800000882
:1042100000000804001007FFE0040000040000068E
:10422000000007E00007FE00041FE00001F80000A6
:10423000380001E0043E0007C00006000004000052
:1042400004000007E00007FFC0041FF80007C007D4
:10425000F80007FF80043FF80007C004F8000700DB
:104260000004000000000004000806001807C078E1
:1042700005F1C8003E00001F800463E80780F806CF
:104280000018040008000000040000060000078079
:104290000007E008047C08001FF80007F800180871
:1042A00004E0080700000600000400000000000110
:1042B00000080600380400F80403E8040F08047C32
:1042C0000805F00807C00807001804006000000097
:1042D0000000000000000000000000000000003F9F
:1042E000FFFE200002200002200002200002200029
:1042F00002000000000000000000080000070000AD
:1043000000C0000038000006000001C000003000BE
:10431000000E00000100000000000000000020006E
:10432000022000022000022000022000023FFFFEC7
:10433000000000000000000000000000000000007D
:104340000000000000080000100000300000200005
:104350000030000010000008000000000000000015
:104360000000010000010000010000010000010048
:104370000001000001000001000001000001000038
:10438000010000010000000000000000002000000B
:1043900020000010000010000000000000000000DD
:1043A00000000000000000000000000000F0001904
:1043B000F8001B180022080026080024080024101A
:1043C000003FF8001FF8000008000018000000047B
:1043D000000007FFF80FFFF0001818001008002079
:1043E00008002008003018001FF0000FC000000077
:1043F0000000000007C0001FF00018300020080077
:104400002008002008003C08001C1000006000008C
:10441000000000000000000007C0001FF000381876
:1044200000200800200800200804101007FFF80FE3
:10443000FFF0000010000000000000000000000776
:10444000C0001FF0001230002218002208002208CD
:10445000003208001E10000E2000000000000000C6
:10446000200000200800200801FFF803FFF80620C4
:1044700008042008042008072000030000000000B2
:1044800000000000000E000E6E001FF30031B100AE
:1044900020B10020B1003191001F13002E1E00201A
:1044A0000E00300000000004000807FFF80FFFF8BE
:1044B000001008002000002000002008003FF80045
:1044C0001FF80000080000000000000000000020AD
:1044D00008002008002008063FF8063FF800000802
:1044E00000000800000800000000000000000000BC
:1044F0000000000003000003002001002001002054
:1045000003063FFE063FFC00000000000000000024
:1045100000000004000807FFF80FFFF80001880002
:104520000300002FC00038F80020380020080000E9
:10453000080000000000000000000400080400085B
:1045400004000807FFF80FFFF8000008000008004B
:104550000008000000000000002008003FF8003FB5
:10456000F8001008002000003FF8003FF800100895
:10457000002000003FF8003FF800000800000000A5
:104580002008003FF8003FF800100800100000204D
:1045900000002008003FF8001FF80000080000009D
:1045A0000000000007C0000FF000183000300800C5
:1045B0002008002008003008001830000FF0000725
:1045C000C0000000000000002001003FFF003FFF8E
:1045D00000101100200900200800200800303800D9
:1045E0001FF0000FC00000000000000007C0001F07
:1045F000F0003818002008002008002009001011E1
:10460000001FFF003FFF0000010000000020080025
:104610002008002008003FF8003FF80008080010BC
:1046200008002008002000003000003000000000DA
:10463000000000000000000C78001E180033080085
:1046400023080021080021880021980030F000385C
:10465000600000000000000020000020000020009A
:1046600000FFF003FFF800200800200800200800E9
:104670000030000000000000000000002000003FAB
:10468000F0007FF80000180000080000080020106B
:10469000003FF8007FF00000100000000000000064
:1046A0002000003000003C00003F800023F00000AC
:1046B00078000070002380003C00003000002000E3
:1046C000002000003C00003FE00023F80000E00074
:1046D0002700003E00003FE00021F80001E0003E1E
:1046E00000002000000000002008002008003838EA
:1046F000003E680027800003C8002CF8003838000E
:1047000020180020080000000000000020000030F9
:1047100003003C01003F830023EC00007000238075
:10472000003C00002000002000000000000000000D
:1047300000000038080020380020F80023E8002F8F
:1047400088003E08003808002018000070000000B3
:104750000000000000000000000000000000000059
:1047600008000014001FF7FC3000062000020000C3
:104770000000000000000000000000000000000039
:10478000000000000000FFFFFF000000000000002C
:1047900000000000000000000000000000002000F9
:1047A000023000061FF7FC001400000800000000A3
:1047B00000000000000000000000000000000018E1
:1047C00000006000004000004000002000001000D9
:1047D000000800000400000400000C0000100000AD
:1047E00000000000000000006F0EA6389415903FF6
:1047F0006058F72D1215A03FAB047532561EA83F26
:104800007993E01B0A13B03F498E3932E515B43F66
:10481000F017FC7F7B17B83FDA97623D8C17BC3FDF
:10482000E05BA15DEB0AC03FE9AA91330D09C23FED
:104830007553A8670B06C43F6C2377D3C501C63FE9
:10484000797A03651CFCC73FA3DDCC20EFF4C93F98
:104850006A1FD2231EECCB3FCCFB94A589E1CD3F50
:1048600096071CFA11D5CF3F4769F9C94BE3D03FF2
:104870000E0E1483FDDAD13F1FFD24838ED1D23F6B
:104880004FE92F37EFC6D33FFB02711F10BBD43F58
:10489000DD9657D0E1ADD53F4B667FF3549FD63FB1
:1048A00019A9A8485A8FD73F63A9AEA6E27DD83F81
:1048B000C2E97CFCDE6AD93F63C602524056DA3F49
:1048C0009D8125C9F73FDB3FC3ACB09EF627DC3F97
:1048D00001DE442B2E0EDD3F1FA444E48FF2DD3FAA
:1048E00052A9BF5C0DD5DE3F24F65B4698B5DF3F8D
:1048F000E4A21E39114AE03F9C2EF5E84EB8E03F95
:10490000512B183C7E25E13F5CE9014D9891E13F38
:10491000EA00B04796FCE13F57BB116A7166E23F7F
:104920005E5A750423CFE23F4136F479A436E33F63
:104930000BACDD40EF9CE33F2AD520E3FC01E43FD4
:10494000BC01B5FEC665E43FEFEE004647C8E43F54
:10495000ECB240807729E53FF057EA895189E53F7D
:1049600014201155CFE7E53FA66BC7E9EA44E63FBF
:10497000CD3B7F669EA0E63F664B6900E4FAE63FCA
:1049800016B8D203B653E73FA53581D40EABE73F47
:10499000DCC50DEEE800E83F14EF3DE43E55E83F8E
:1049A000EA6B5B630BA8E83F844E8A3049F9E83F25
:1049B000F2911D2AF348E93F5714EA470497E93F6B
:1049C000A8F4979B77E3E93FC94EF250482EEA3F9F
:1049D000095135AE7177EA3F17A65A14EFBEEA3F88
:1049E000862E64FFBB04EB3F4005A506D448EB3F91
:1049F0003CCA08DD328BEB3FF72E5951D4CBEB3F4D
:104A00005AC0814EB40AEC3FA7E9D1DBCE47EC3F58
:104A10006C2C3D1D2083EC3F45899953A4BCEC3F91
:104A20008C15DCDC57F4EC3F31BA5334372AED3FB8
:104A3000ED17E2F23E5EED3F468D32CF6B90ED3FDB
:104A4000E55AEF9DBAC0ED3FE3E2F45128EFED3FA8
:104A5000D8FF82FCB11BEE3F7E706CCD5446EE3F1A
:104A6000FF5444130E6FEE3FF5BA893BDB95EE3FE2
:104A70007235D1D2B9BAEE3F667EEC84A7DDEE3F47
:104A8000E01E101DA2FEEE3FCF1BF785A71DEF3FD6
:104A9000F8A404CAB53AEF3F14C46313CB55EF3FF3
:104AA000FF0925ACE56EEF3F21385AFE0386EF3F44
:104AB0005CE42F94249BEF3FD015051846AEEF3FE2
:104AC00003D9805467BFEF3F03CAA53487CEEF3FB9
:104AD0005C93E3C3A4DBEF3FAF60262EBFE6EF3F5E
:104AE000FE43E4BFD5EFEF3FD38C28E6E7F6EF3F78
:104AF00086109D2EF5FBEF3F12639147FDFEEF3FC1
:104B0000000000000000F03FBDE1CAF8464654CB6B
:104B1000E3B7A82A2A2A2A2A2A2A2A2A2A2A2A2A31
:104B20002A2A2A2A2A2A2A2A2A2A2A2A2A2A2A2AE5
:104B30002A2A2A2A2A2A2A2A2A2A2A2A2A2A2A2AD5
:104B40002A2A2A2A2A2A2A2A2A2A2A2A2A2A2A2AC5
:104B50002A2A2A2A2A2A2A2A2A2A2A2A2A2A2A2AB5
:104B60002A2A2A2A2A2A2A2A2A2A2A2A2A2A2A2AA5
:104B70002A2A2A2A2A2A2A2A2A2A2A2A2A2A2A2A95
:104B80002A2A0D0A00000000BFAACABC464654CB20
:104B9000E3B7A82A2A2A2A2A2A2A2A2A2A2A2A2AB1
:104BA0002A2A2A2A2A2A2A2A2A2A2A2A2A2A2A2A65
:104BB0002A2A2A2A2A2A2A2A2A2A2A2A2A2A2A2A55
:104BC0002A2A2A2A2A2A2A2A2A2A2A2A2A2A2A2A45
:104BD0002A2A2A2A2A2A2A2A2A2A2A2A2A2A2A2A35
:104BE0002A2A2A2A2A2A2A2A2A2A2A2A2A2A2A2A25
:104BF0002A2A2A2A2A2A2A0D0A0000002A2A2A2AD0
:104C00002A2A2A2A2A2A2A2A2A2A2A2A2A2A2A2A04
:104C10002A2A2A2A2A2A2A2A2A2A2A2A2A2A2A2AF4
:104C20002A2A2A2A2A2A2A2A2A2A2A2A2A2A2A2AE4
:104C30002A2A2A2A2A2A2A2A2A2A2A2A2A2A2A2AD4
:104C40002A2A2A2A2A2A2A2A2A2A2A2A2A2A2A2AC4
:104C50002A2A2A2A2A2A2A2A2A2A2A2A2A2A0D0AF1
:104C6000000000002A2A2A2A2A2A2A2A2A2A2A2A4C
:104C70002A2A2A2A2A2A2A2A2A2A2A2A2A2A2A2A94
:104C80002A2A2A2A2A2A2A2A2A2A2A2A2A2A2A2A84
:104C90002A2A2A2A2A2A2A2A2A2A2A2A2A2A2A2A74
:104CA0002A2A2A2A2A2A2A2A2A2A2A2A2A2A2A2A64
:104CB0002A2A2A2A2A2A2A2A2A2A2A2A0D0A0000E5
:104CC0002A2A2A2A2A2A2A2A2A2A2A2A38207074B0
:104CD000204D6F76696E6720417665726167652049
:104CE00069722A2A2A2A2A2A2A2A2A2A2A2A2A2A9D
:104CF0002A2A2A2A2A2A2A2A2A2A2A2A2A2A2A2A14
:104D00002A2A2A2A2A2A2A2A2A2A2A2A2A2A2A2A03
:104D10002A2A2A2A2A2A2A2A2A2A2A2A2A2A2A0D10
:104D20000A0000002A2A2A2A2A2A2A2A2A2A2A3873
:104D3000207074204D6F76696E67204176657261D0
:104D40006765207265642A2A2A2A2A2A2A2A2A2A98
:104D50002A2A2A2A2A2A2A2A2A2A2A2A2A2A2A2AB3
:104D60002A2A2A2A2A2A2A2A2A2A2A2A2A2A2A2AA3
:104D70002A2A2A2A2A2A2A2A2A2A2A2A0D0A000024
:104D8000A04D0008000000204C000000D41B0008CB
:104D9000EC4D00084C00002004390000E41B000822
:104DA00000A24A0400000000000000000102030409
:104DB00006070809000000000102030401020304C1
:104DC00006070809020406080000000000000000B1
:104DD00000000000000000000000000000000000D3
:0C4DE000000000000000000000000000C7
:04000005080000ED02
:00000001FF
